:020000040800F2
:10000000005000207D3F00089D570008A1570008C0
:10001000A5570008A9570008AD57000800000000C8
:10002000000000000000000000000000B1570008C0
:10003000B557000800000000B9570008BD57000878
:10004000C13F0008C13F0008C13F0008C13F000890
:10005000C13F0008C13F0008C13F0008C13F000880
:10006000C13F0008C13F0008C13F0008E532000859
:10007000C13F0008C13F0008C13F0008C13F000860
:10008000C13F0008C13F000855320008C13F0008C9
:10009000C13F0008C13F0008C13F0008C13F000840
:1000A000C13F0008C13F0008C13F0008F53000080B
:1000B000C13F0008C13F0008C13F0008C13F000820
:1000C000C13F0008C13F0008C13F0008C13F000810
:1000D000C13F0008C13F0008C13F0008C13F000800
:1000E000C13F0008C13F0008C13F000800000000F8
:1000F0000000000000000000000000000000000000
:0C01000000000000000000005FF808F1A3
:1001100090B583B000AF041C081C111C1A1CBB1D39
:100120001C803B1D1880BB1C19803B1C1A802A2098
:1001300004F01AFDBB1D1B881B0A1B041B0C181C9A
:1001400004F02CFDBB1D1B88181C04F027FDBA1DF4
:100150003B1D12881B88D3181B041A0CBB1D013AC7
:100160001A80BB1D1B881B0A1B041B0C181C04F0E7
:1001700015FDBB1D1B88181C04F010FD2B2004F07E
:10018000F3FCBB1C1B881B0A1B041B0C181C04F073
:1001900005FDBB1C1B88181C04F000FDBA1C3B1C91
:1001A00012881B88D3181B041A0CBB1C013A1A8036
:1001B000BB1C1B881B0A1B041B0C181C04F0EEFC48
:1001C000BB1C1B88181C04F0E9FCBD4603B090BCA6
:1001D00001BC004790B587B000AF041C081C111C7F
:1001E0001A1CBB1D1C803B1D1880FB1C19703B1C7E
:1001F0001A80FB6A1A68FB1C1978FB6A1B7AC91AF9
:10020000FB6A1B790733002B00DA0733DB104B4303
:10021000F96A49794B43D3183B61FB6A1B79191C76
:10022000FB6A5B79BA1D10883A1D1288FFF770FFD0
:100230004D4B802292015A614B4B8022D2015A6170
:100240004A4B4A4AD168FF2212020A402C210A4333
:10025000DA60454B802212025A61434B802212021F
:100260001A61414B8022D2011A61414B414A1A80E6
:10027000FB6A1B79FA6A52795343002B00DA073381
:10028000DB101A1C3B1C14331A805FE03B1C173335
:100290003A6912781A703B1C163308221A7046E02D
:1002A0003B1C17331B781B061B16002B02DA3B1C6A
:1002B0001B8802E03B1C28331B883A1C0E3213803B
:1002C0002A4B2A4AD168FF22120211403A1C0E32F0
:1002D0001288120A1204120C0A43DA60224B80229E
:1002E00012025A61204B802212021A611F4B1F4AD0
:1002F000D168FF22120211403A1C0E3212880A43C2
:10030000DA60194B802212025A61174B80221202C6
:100310001A613B1C17333A1C1732127852001A70BC
:100320003B1C16333A1C16321278013A1A703B1CE9
:1003300016331B78002BB3D13B6901333B613B1C67
:1003400014333A1C14321288013A1A803B1C1433BD
:100350001B88002B9AD1044B802292011A61BD4662
:1003600007B090BC01BC004700100140000C0140E8
:10037000820100204AECFFFF90B585B002AF041C5B
:10038000081C111C1A1CBB1D1C803B1D1880BB1CAB
:1003900019803B1C1A80BB1C1B88013B1B041B0CD7
:1003A0001B041B0CBA1D0020115E3A1D0020125EBA
:1003B0001B041B14381C183000880090081C111CEA
:1003C0001A1C012304F086FC3B1D1A883B1C1B8869
:1003D000D3181B041B0C013B1B041B0C1B041B0C24
:1003E000BA1D0020115E1B041B14BA1C0020125EF3
:1003F000381C183000880090081C191C012304F0D8
:1004000069FC3B1C1B88013B1B041B0C1B041B0CC5
:10041000BA1D0020115E3A1D0020125E1B041B1441
:10042000381C183000880090081C111C012204F0B0
:1004300051FCBB1D1A88BB1C1B88D3181B041B0C4A
:10044000013B1B041B0C1B041A0C3B1C1B88013BAF
:100450001B041B0C1B041B0C12041214391D00205E
:10046000095E1B041B14381C183000880090101CF7
:10047000012204F02FFCBD4603B090BC01BC004734
:1004800080B500AF204B80221A801F4B00229A803B
:100490001D4B17221A811C4B00229A811A4B0022F5
:1004A0001A82194B00229A82174B184A1A83164B4C
:1004B00000229A83144B11221A84134B00229A842F
:1004C000114B00221A85104B012252429A850E4B85
:1004D0000F4A9A860C4B02221A870B4B00229A87EE
:1004E000094A40230021D152074A48230021D15212
:1004F000054A4C230021D152034B81221A80BD466C
:1005000080BC01BC0047C046002C01400130000007
:100510008813000080B500AF8023DB0580221A809D
:100520008023DB0550229A808023DB0500221A817C
:100530008023DB0500229A818023DB0500221A82BA
:100540008023DB0500229A828023DB05C022D201B2
:100550001A838023DB0500229A838023DB05102287
:100560001A848023DB0500229A848023DB0508227D
:100570001A858023DB0509229A858023DB05104A32
:100580009A868023DB0505221A878023DB0500225B
:100590009A878023DA0540230021D1528023DA058F
:1005A00048230021D1528023DA054C230021D15267
:1005B0008023DB0580221A80BD4680BC01BC004739
:1005C0008813000080B500AF214B00221A60204B39
:1005D00000225A601E4B1F4A9A601D4B0022DA60AF
:1005E0001B4B00221A611A4B00225A61184B002241
:1005F0009A61174B0022DA61154B00221A62144BE4
:10060000154A5A62124B00229A62114B0022DA629A
:100610000F4B00221A630E4B00225A630C4B002230
:100620009A630B4B0A4A926804210A439A60C046B7
:10063000074B9A6804231340002BF9D0044B044A5B
:10064000926801210A439A60BD4680BC01BC004704
:100650000024014000011600FF0F000080B500AF2C
:100660000A4B181C05F02EFF084B094A128A5A60E3
:10067000064B084A9A60054B074ADA60034B074A63
:100680001A60BD4680BC01BC0047C046080002405D
:10069000C80100204C240140DC010020A5250000F9
:1006A00080B582B000AF3B1D1B221A703B1D00229B
:1006B0005A703B1D00229A703B1D0022DA703B1DD0
:1006C000181C05F023FC3B1D12221A703B1D002252
:1006D0005A703B1D00229A703B1D0022DA703B1DB0
:1006E000181C05F013FC3B1D0B221A703B1D002249
:1006F0005A703B1D00229A703B1D0022DA703B1D90
:10070000181C05F003FCBD4602B080BC01BC0047CC
:1007100080B584B002AFBB1D00221A80A0235B000D
:10072000BA1D12880092002000211A1CF02304F048
:10073000D1FA414BBA1D12880092404A019218200A
:100740003221002204F016FB3B4BBA1D12880092A6
:100750003B4A01926E203421002204F00BFB364B01
:10076000BA1D12880092374A019218204B210022AC
:10077000FFF730FD344B0022DA80334B07221A7129
:10078000314B00225A71304B12221A702E4B00222C
:100790009A722D4B0022DA722B4B00229A812A4B3F
:1007A0008022D2001A82284BB52252005A80264B52
:1007B0001B8A5B081B041B0C1B041A0C224BDA81DE
:1007C000214B00221A81214B214A9A611F4B0022A2
:1007D0005A801E4B00221A711C4B00221A801A4BA1
:1007E0005A881A4BDA80184B1B8A1B041A0C174BB9
:1007F0009A81184B00221A70174B184A1A60184B2E
:10080000134A1A60174B184A1A80184B00221A8094
:10081000174B184A1A80184B00221A70FFF730FE47
:10082000FFF778FEFFF7CEFEFFF718FFBD4602B0D8
:1008300080BC01BC0047C046E0FF00004C00002027
:100840005800002034000020C80100203C1B00207C
:100850000813002086010020E81E0020A5F30000F8
:100860005C1B0020EC1E002010270000581B0020FD
:10087000AC010020B80B0000AA01002080B582B0B6
:1008800000AF0A1CBB1D011C19803B1D1A80BA1D3C
:100890003B1D0021525E00215B5E9A4202DABB1DC5
:1008A0001B8801E03B1D1B881B041B14181CBD4644
:1008B00002B080BC02BC084780B582B000AF0A1C01
:1008C000BB1D011C19803B1D1A80BA1D3B1D002158
:1008D000525E00215B5E9A4202DDBB1D1B8801E077
:1008E0003B1D1B881B041B14181CBD4602B080BC9A
:1008F00002BC084780B584B000AF021C3960BB1D44
:100900001A80BB1D1B88181C5C4902F039FD031CB2
:100910001B041A0C3B1C0F331A703B1C0F331B7843
:10092000302213431B061A0E3B681A703B1C0F3310
:100930001B781B041B0C1A1CD200D21A111C490173
:100940008A1A1201D31A1B011B04190CBB1DBA1DF4
:1009500012888A181A80BB1D1B88181CFA2399005C
:1009600002F00EFD031C1B041A0C3B1C0F331A7003
:100970003B6801333A1C0F32127830210A431206C9
:10098000120E1A703B1C0F331B781B041B0C1A1C15
:100990009201D21A9201D2185200D318DB001B0424
:1009A000190CBB1DBA1D12888A181A80BB1D1B8822
:1009B000181C642102F0E4FC031C1B041A0C3B1CF1
:1009C0000F331A703B6802333A1C0F321278302111
:1009D0000A431206120E1A703B1C0F331B781B04BD
:1009E0001B0C1A1C5202D21A9200D218D200D31A2F
:1009F0009B001B04190CBB1DBA1D12888A181A8093
:100A0000BB1D1B88181C0A2102F0BAFC031C1B0426
:100A10001A0C3B1C0F331A703B6803333A1C0F321D
:100A2000127830210A431206120E1A703B1C0F3343
:100A30001B781B041B0C1A1C5203D21A9200D31AE7
:100A40005B001B04190CBB1DBA1D12888A181A8082
:100A50003B680433BA1D12881206120E30210A4375
:100A60001206120E1A703B68053300221A703B689A
:100A7000181CBD4604B080BC02BC0847102700000B
:100A800080B500AF8023DB05144A127812061216D7
:100A9000511E134A49008A5A013A1204120C1A854F
:100AA0008023DB050D4A127812061216511E0D4ADC
:100AB00049008A5A013A1204120C9A858023DB05F8
:100AC0008022D205928D1204120C52081204120CCC
:100AD0001A87BD4680BC01BC0047C046C801002043
:100AE000D80000200801002080B584B002AFB74BC9
:100AF0001B882B2293431B041A0CB44B1A80B34B54
:100B00001B881A1C04231340002B00D056E18023BD
:100B1000DB058022D20512881204120C01218A43BF
:100B20001204120C1A80AA4BA94A92891204120CC0
:100B300006218A431204120C9A81A64BA54A126818
:100B400001218A431A60A34BA24A126806218A43F4
:100B50001A60A14BA04A52680F210A435A609F4B6A
:100B60009E4A526820218A435A609C4B9B4A1268D5
:100B700002218A431A609A4B1B781B061B160D2B09
:100B800006DC944B974ADA60904B964A5A6105E02E
:100B9000904B954ADA608D4B934A5A618D4B904A3F
:100BA000128A5A608B4B8B4A126804210A431A60DE
:100BB000874B8B4A128A1A87854B854A9289120481
:100BC000120C06218A431204120C9A81804B804A2F
:100BD000128A1204120C06218A431204120C1A8281
:100BE0007F4B1B781B061B160D2B0DDD7C4B9B7A58
:100BF000002B09D1764B764A92891204120C0421FB
:100C00000A431204120C9A81784B1A68784B9A4264
:100C10005DD1764B734A1A60BB1D012252421A8085
:100C2000A0235B00BA1D12880092002000211A1C2C
:100C3000F02304F04FF8BB1D1B8800936D4B01930C
:100C40001420502100221F2304F094F8BB1D1B88A0
:100C50000093694B0193182073210022002304F0B4
:100C600089F8F8231B02BA1D12880092634A019288
:100C70001420B421002204F07DF8F8231B02BA1DD1
:100C8000128800925E4A01925A20B221002204F09A
:100C900071F8F8231B02BA1D12880092594A01927A
:100CA0005A20C821002204F065F8574B574A1A8091
:100CB0004B4B1B781B061A0E554B1A70554B0022D6
:100CC0001A70554B00221A80404B00225A80FFF7C1
:100CD000D7FE434B1B781B061B160D2B0CDC3F4B22
:100CE0003E4A526820210A435A603C4B3B4A916875
:100CF0004A4A0A409A6006E0384B384A9268802196
:100D000049000A439A60364BDB7A1B061B16012BFF
:100D10000AD12F4B2E4A128C1204120C02218A4344
:100D20001204120C1A8409E0294B294A128C12046D
:100D3000120C02210A431204120C1A84354B1B7840
:100D4000002B3DD0344B1A88354B9A4212D1324B8E
:100D500000221A80334B1B78002B03D11B4BFF2240
:100D60005A8007E0194B5B88082213431B041A0CB6
:100D7000164B5A80154B1B88802213431B041A0CF8
:100D8000124B1A80164B1B781B061B160D2B05DD0C
:100D9000104B104A126801210A431A600C4B0022C2
:100DA0009A848023DB058022D20512881204120C5B
:100DB00001210A431204120C1A8002E0C04600E02E
:100DC000C046BD4602B080BC01BC00473C1B0020B1
:100DD000002C0140080002400000024000240140B5
:100DE000C801002008130020DC010020E81E0020BC
:100DF000A5F3000040000020340000201000002077
:100E00001C00002028000020AC010020B80B0000CE
:100E10008601002087010020B81D0020FFFEFFFF93
:100E2000DC05000080010020F0B5474680B486B0A4
:100E300000AF8F4B802212021A618E4B1B881A1C46
:100E400002231340002B43D008E08A4B1A8A8A4BB6
:100E50001B8AD31A1B041A0C864B1A82854B1A8ADA
:100E6000854B1B8A9A42F0D2844BDA68824B1B8AEC
:100E7000191C814BDB891B041B14CB1A191C7D4BDD
:100E80001B8ACB185B00D3181A1C7A4B5A61794B1A
:100E90005A697A4BD968784B1B8A5B00CB189A4207
:100EA00008D3744B5A69744B1B8A5B005B42D2189F
:100EB000704B5A61704B9B7A1B061B16022B07D195
:100EC0006C4B1B88202213431B041A0C694B1A809D
:100ED000684B1B881A1C04231340002B01D000F020
:100EE000D1FE654B1B781B061B16162B3CDC614B99
:100EF0005B697B61624B3B610023BB603B1C0E3333
:100F00005D4A128A1A801FE07B691A883B691A8041
:100F10007B691B88BA68D318BB603B6902333B61AD
:100F20007B6902337B61544B1B8A5A00554BD218A4
:100F30007B699A4201D8534B7B613B1C0E333A1CB0
:100F40000E321288013A1A803B1C0E331B88002B8C
:100F5000DAD1494B1B8AB868191C02F011FA031C3C
:100F60001B041A0C434BDA81434B1B781B061B16E0
:100F7000172B07D0404B1B781B061B16182B01D0D4
:100F800000F07DFE3F4B7B610023BB603B1C0E33BA
:100F900000221A800EE07B691B88BA68D318BB60F8
:100FA0007B6902337B613B1C0E333A1C0E32128884
:100FB00001321A80304B1B8A3A1C0E3212889A4238
:100FC000E9D32D4B1B8AB868191C02F0D9F9031C10
:100FD0001A1CBB1C1A80BB1C1A88264BDA81254BB5
:100FE0005B697B61284B7B603B1C0E3300221A80BF
:100FF00023E07B691A88BB1C1B88D31A1B041B0CBB
:101000001B041A0C7B681A807B6802337B607B6947
:1010100002337B61184B1B8A5B001A1C194BD318D7
:101020001A1C7B699A4201D8164B7B613B1C0E331C
:101030003A1C0E32128801321A800F4B1B8A3A1C5E
:101040000E3212889A42D4D30F4B7B600C4B3B611B
:10105000094B1B781B061B16172B04D0182B00D12D
:1010600005E300F00CFE3B1C0E3300221A80EEE27A
:10107000000801403C1B0020C8010020080002407D
:1010800008130020DC010020DC0900207B68043309
:101090001B881B041A0CBB1C1B88D3181B041A0CBE
:1010A0003B691A803B69023398467B681B881B04A6
:1010B0001B14181C02F078FE031C181C02F0D8FA4E
:1010C000031C0C1C181C211CEE4BED4A02F028FBE3
:1010D000031C0C1C1D1C261C7B6802331B881B0474
:1010E0001B14181C02F060FE031C181C02F0C0FA4E
:1010F000031C0C1C181C211CE34AE44B02F010FBDF
:10110000031C0C1C281C311C1A1C231C02F052F955
:10111000031C0C1C1D1C261C7B6804331B881B0431
:101120001B14181C02F040FE031C181C02F0A0FA4D
:10113000031C0C1C181C211CD54AD64B02F0F0FADB
:10114000031C0C1C281C311C1A1C231C02F032F935
:10115000031C0C1C1D1C261C7B6806331B881B04EF
:101160001B14181C02F020FE031C181C02F080FA4D
:10117000031C0C1C181C211CC74AC84B02F0D0FAD7
:10118000031C0C1C281C311C1A1C231C02F012F915
:10119000031C0C1C1D1C261C7B6808331B881B04AD
:1011A0001B14181C02F000FE031C181C02F060FA4D
:1011B000031C0C1C181C211CB94ABA4B02F0B0FAD3
:1011C000031C0C1C281C311C1A1C231C02F0F2F8F6
:1011D000031C0C1C181C211C02F0B4FC031C1B0477
:1011E0001B0C1B041A0CBB1C1B88D3181B041B0CE8
:1011F000424613803B69043398467B6802331B8860
:101200001B041B14181C02F0CFFD031C181C02F059
:101210002FFA031C0C1C181C211CA14AA14B02F024
:101220007FFA031C0C1C1D1C261C7B6804331B88C6
:101230001B041B14181C02F0B7FD031C181C02F041
:1012400017FA031C0C1C181C211C974A974B02F020
:1012500067FA031C0C1C281C311C1A1C231C02F0EE
:10126000A9F8031C0C1C1D1C261C7B6806331B885C
:101270001B041B14181C02F097FD031C181C02F021
:10128000F7F9031C0C1C181C211C894A894B02F01D
:1012900047FA031C0C1C281C311C1A1C231C02F0CE
:1012A00089F8031C0C1C1D1C261C7B6808331B883A
:1012B0001B041B14181C02F077FD031C181C02F001
:1012C000D7F9031C0C1C181C211C7B4A7B4B02F019
:1012D00027FA031C0C1C281C311C1A1C231C02F0AE
:1012E00069F8031C0C1C1D1C261C7B680A331B8818
:1012F0001B041B14181C02F057FD031C181C02F0E1
:10130000B7F9031C0C1C181C211C5E4B5C4A02F034
:1013100007FA031C0C1C281C311C1A1C231C02F08D
:1013200049F8031C0C1C181C211C02F00BFC031CAC
:101330001B041B0C1B041A0CBB1C1B88D3181B049E
:101340001B0C424613803B69063398467B68023388
:101350001B881B041B14181C02F026FD031C181C00
:1013600002F086F9031C0C1C181C211C454B444A36
:1013700002F0D6F9031C0C1C1D1C261C7B680433D0
:101380001B881B041B14181C02F00EFD031C181CE8
:1013900002F06EF9031C0C1C181C211C464A474B1A
:1013A00002F0BEF9031C0C1C281C311C1A1C231C47
:1013B00002F000F8031C0C1C1D1C261C7B68063365
:1013C0001B881B041B14181C02F0EEFC031C181CC9
:1013D00002F04EF9031C0C1C181C211C344A354B1E
:1013E00002F09EF9031C0C1C281C311C1A1C231C27
:1013F00001F0E0FF031C0C1C1D1C261C7B6808333D
:101400001B881B041B14181C02F0CEFC031C181CA8
:1014100002F02EF9031C0C1C181C211C224A234B21
:1014200002F07EF9031C0C1C281C311C1A1C231C06
:1014300001F0C0FF031C0C1C1D1C261C7B680A331A
:101440001B881B041B14181C02F0AEFC031C181C88
:1014500002F00EF9031C0C1C181C211C094B084A35
:1014600002F05EF9031C0C1C281C311C1A1C231CE6
:1014700001F0A0FF031C0C1C22E0C046C046C04681
:101480000000000000000000AF946588635DB4BFF9
:101490000E2DB29DEFA7E63F4772F90FE9B7DB3F8C
:1014A0000E2DB29DEFA7A6BF0E2DB29DEFA7C63F92
:1014B000738577B988EFED3F4F232D95B723B4BFE0
:1014C000181C211C02F03EFB031C1B041B0C1B04FC
:1014D0001A0CBB1C1B88D3181B041B0C4246138020
:1014E0003B690822D21890467B6804331B881B0492
:1014F0001B14181C02F058FC031C181C02F0B8F84E
:10150000031C0C1C181C211C5C4B5B4A02F008F9E4
:10151000031C0C1C1D1C261C7B6806331B881B042B
:101520001B14181C02F040FC031C181C02F0A0F84D
:10153000031C0C1C181C211C514A524B02F0F0F8E1
:10154000031C0C1C281C311C1A1C231C01F032FF2C
:10155000031C0C1C1D1C261C7B6808331B881B04E9
:101560001B14181C02F020FC031C181C02F080F84D
:10157000031C0C1C181C211C434A444B02F0D0F8DD
:10158000031C0C1C281C311C1A1C231C01F012FF0C
:10159000031C0C1C1D1C261C7B680A331B881B04A7
:1015A0001B14181C02F000FC031C181C02F060F84D
:1015B000031C0C1C181C211C354A364B02F0B0F8D9
:1015C000031C0C1C281C311C1A1C231C01F0F2FEED
:1015D000031C0C1C1D1C261C7B680C331B881B0465
:1015E0001B14181C02F0E0FB031C181C02F040F84E
:1015F000031C0C1C181C211C274A284B02F090F8D5
:10160000031C0C1C281C311C1A1C231C01F0D2FECC
:10161000031C0C1C181C211C02F094FA031C1B0454
:101620001B0C1B041A0CBB1C1B88D3181B041B0CA3
:10163000424613807B6804337B603B690A333B611D
:101640003B1C0E333A1C0E32128801321A80144BA6
:101650001B8A181C052101F093FE031C1B041B0CA4
:101660003A1C0E3212889A4200D20FE507E33B1C67
:101670000E3300221A80F2E20E2DB29DEFA7A6BF14
:101680004772F90FE9B7DB3F0E2DB29DEFA7E63F9A
:10169000AF946588635DB4BF0000000000000000E7
:1016A000C80100207B6804331B881B041A0CBB1C78
:1016B0001B88D3181B041A0C3B691A803B69023340
:1016C00098467B681B881B041B14181C02F06CFBDB
:1016D000031C181C01F0CCFF031C0C1C181C211C43
:1016E000EC4BEB4A02F01CF8031C0C1C1D1C261CC6
:1016F0007B6802331B881B041B14181C02F054FB6C
:10170000031C181C01F0B4FF031C0C1C181C211C2A
:10171000E14AE24B02F004F8031C0C1C281C311CAB
:101720001A1C231C01F046FE031C0C1C1D1C261C4D
:101730007B6804331B881B041B14181C02F034FB49
:10174000031C181C01F094FF031C0C1C181C211C0A
:10175000D34AD44B01F0E4FF031C0C1C281C311CA1
:101760001A1C231C01F026FE031C0C1C1D1C261C2D
:101770007B6806331B881B041B14181C02F014FB27
:10178000031C181C01F074FF031C0C1C181C211CEA
:10179000C54AC64B01F0C4FF031C0C1C281C311C9D
:1017A0001A1C231C01F006FE031C0C1C1D1C261C0D
:1017B0007B6808331B881B041B14181C02F0F4FA06
:1017C000031C181C01F054FF031C0C1C181C211CCA
:1017D000B74AB84B01F0A4FF031C0C1C281C311C99
:1017E0001A1C231C01F0E6FD031C0C1C181C211CF8
:1017F00002F0A8F9031C1B041B0C1B041A0CBB1CD5
:101800001B88D3181B041B0C424613803B6904330E
:1018100098467B681B881B041B14181C02F0C4FA32
:10182000031C181C01F024FF031C0C1C181C211C99
:10183000984B974A01F074FF031C0C1C1D1C261CBE
:101840007B6802331B881B041B14181C02F0ACFAC3
:10185000031C181C01F00CFF031C0C1C181C211C81
:10186000954A964B01F05CFF031C0C1C281C311C94
:101870001A1C231C01F09EFD031C0C1C1D1C261CA5
:101880007B6804331B881B041B14181C02F08CFAA1
:10189000031C181C01F0ECFE031C0C1C181C211C62
:1018A000874A884B01F03CFF031C0C1C281C311C90
:1018B0001A1C231C01F07EFD031C0C1C1D1C261C85
:1018C0007B6806331B881B041B14181C02F06CFA7F
:1018D000031C181C01F0CCFE031C0C1C181C211C42
:1018E000794A7A4B01F01CFF031C0C1C281C311C8C
:1018F0001A1C231C01F05EFD031C0C1C1D1C261C65
:101900007B6808331B881B041B14181C02F04CFA5C
:10191000031C181C01F0ACFE031C0C1C181C211C21
:10192000634A644B01F0FCFE031C0C1C281C311C98
:101930001A1C231C01F03EFD031C0C1C181C211C4E
:1019400002F000F9031C1B041B0C1B041A0CBB1C2B
:101950001B88D3181B041B0C424613803B690633BB
:1019600098467B6802331B881B041B14181C02F06A
:101970001BFA031C181C01F07BFE031C0C1C181C1A
:10198000211C4B4A4B4B01F0CBFE031C0C1C1D1CB5
:10199000261C7B6804331B881B041B14181C02F0D4
:1019A00003FA031C181C01F063FE031C0C1C181C1A
:1019B000211C454A454B01F0B3FE031C0C1C281C9E
:1019C000311C1A1C231C01F0F5FC031C0C1C1D1CF3
:1019D000261C7B6806331B881B041B14181C02F092
:1019E000E3F9031C181C01F043FE031C0C1C181C1B
:1019F000211C334A334B01F093FE031C0C1C281CA2
:101A0000311C1A1C231C01F0D5FC031C0C1C1D1CD2
:101A1000261C7B6808331B881B041B14181C02F04F
:101A2000C3F9031C181C01F023FE031C0C1C181C1A
:101A3000211C214A214B01F073FE031C0C1C281CA5
:101A4000311C1A1C231C01F0B5FC031C0C1C1D1CB2
:101A5000261C7B680A331B881B041B14181C02F00D
:101A6000A3F9031C181C01F003FE031C0C1C181C1A
:101A7000211C084B064A01F053FE031C0C1C281CB9
:101A8000311C1A1C231C01F095FC031C0C1C1FE0CC
:101A900000000000000000004F232D95B723B4BFC5
:101AA000738577B988EFED3F0E2DB29DEFA7C63F46
:101AB0000E2DB29DEFA7A6BFAF946588635DB4BF3E
:101AC0000E2DB29DEFA7E63F4772F90FE9B7DB3F56
:101AD000181C211C02F036F8031C1B041B0C1B04F1
:101AE0001A0CBB1C1B88D3181B041B0C424613800A
:101AF0003B690822D21890467B6802331B881B047E
:101B00001B14181C02F050F9031C181C01F0B0FD46
:101B1000031C0C1C181C211C6E4B6D4A01F000FEAE
:101B2000031C0C1C1D1C261C7B6804331B881B0417
:101B30001B14181C02F038F9031C181C01F098FD46
:101B4000031C0C1C181C211C634A644B01F0E8FDAB
:101B5000031C0C1C281C311C1A1C231C01F02AFC21
:101B6000031C0C1C1D1C261C7B6806331B881B04D5
:101B70001B14181C02F018F9031C181C01F078FD46
:101B8000031C0C1C181C211C554A564B01F0C8FDA7
:101B9000031C0C1C281C311C1A1C231C01F00AFC01
:101BA000031C0C1C1D1C261C7B6808331B881B0493
:101BB0001B14181C02F0F8F8031C181C01F058FD47
:101BC000031C0C1C181C211C474A484B01F0A8FDA3
:101BD000031C0C1C281C311C1A1C231C01F0EAFBE2
:101BE000031C0C1C1D1C261C7B680A331B881B0451
:101BF0001B14181C02F0D8F8031C181C01F038FD47
:101C0000031C0C1C181C211C394A3A4B01F088FD9E
:101C1000031C0C1C281C311C1A1C231C01F0CAFBC1
:101C2000031C0C1C181C211C01F08CFF031C1B0442
:101C30001B0C1B041A0CBB1C1B88D3181B041B0C8D
:101C4000424613807B6802337B603B690A333B6109
:101C50003B1C0E333A1C0E32128801321A80264B7E
:101C60001B8A181C052101F08BFB031C1B041B0C99
:101C70003A1C0E3212889A4200D213E5C0461F4B1E
:101C80001F4A9A611D4B1B881A1C20231340002BEE
:101C900017D01A4B1B88042213431B041A0C174B32
:101CA0001A80164B1B88202293431B041A0C134BDB
:101CB0001A80124B5B88022213431B041A0C0F4B31
:101CC0005A80BD4606B004BC9046F0BC01BC00473B
:101CD0000E2DB29DEFA7A6BF0E2DB29DEFA7C63F5A
:101CE000738577B988EFED3F4F232D95B723B4BFA8
:101CF0000000000000000000C80100203C1B002084
:101D00000813002080B500AF114B1B8808229343B5
:101D10001B041A0C0E4B1A800E4B9B7A002B06D01C
:101D20000B4B1B881A1C02231340002B0BD0084BB3
:101D30005A69074B9A61064B5B88042213431B04C4
:101D40001A0C034B5A80BD4680BC01BC0047C046FC
:101D50003C1B0020C801002080B500AF8023DB05BC
:101D60008022D20512881204120C01218A43120427
:101D7000120C1A80BD4680BC01BC004780B582B001
:101D800000AF021CFB1D1A70FB1D1B781B061B16E7
:101D90000C2B02DDFB1D0C221A70FB1D1B781B0691
:101DA0001B16032B02DCFB1D04221A70064BFA1DC6
:101DB00012781A71044B1B791B061B16181CBD46A2
:101DC00002B080BC02BC0847C801002080B500AF4B
:101DD000044B1B791B061B16181CBD4680BC02BC9D
:101DE0000847C046C801002080B582B000AF021C81
:101DF000FB1D1A70FB1D1B781B061B16022B02DD38
:101E0000FB1D02221A70FB1D1B787F2B02D9FB1DC4
:101E100000221A70064BFA1D12785A71044B5B7936
:101E20001B061B16181CBD4602B080BC02BC08472E
:101E3000C801002080B500AF044B5B791B061B1660
:101E4000181CBD4680BC02BC0847C046C801002023
:101E500080B582B000AF021CBB1D1A80BB1D0022E2
:101E60009B5E1A1CFF3203DABB1DFF2252421A800E
:101E7000BB1D00229B5EFF2B02DDBB1DFF221A80D3
:101E8000064BBA1D1288DA80BB1D1B881B041B146D
:101E9000181CBD4602B080BC02BC0847C801002027
:101EA00080B500AF044BDB881B041B14181CBD4617
:101EB00080BC02BC0847C046C801002080B582B083
:101EC00000AF021CFB1D1A70FB1D1B781B061B16A6
:101ED000002B02DCFB1D01221A70FB1D1B781B0668
:101EE0001B16182B02DDFB1D18221A70064BFA1D5B
:101EF00012781A70044B1B781B061B16181CBD4663
:101F000002B080BC02BC0847C801002080B500AF09
:101F1000044B1B781B061B16181CBD4680BC02BC5C
:101F20000847C046C801002080B582B000AF021C3F
:101F3000BB1D1A80BB1D00215B5E002B02DABB1D9E
:101F400000221A80BB1D00215A5E0E4B1B8A2E3BBD
:101F5000FF3B9A4207DD0B4B1B8A2E3BFF3B1B04CA
:101F60001A0CBB1D1A80074BBA1D12885A80054BEC
:101F70005B881B041B14181CBD4602B080BC02BC4D
:101F80000847C046C801002080B500AF044B5B88FD
:101F90001B041B14181CBD4680BC02BC0847C0466D
:101FA000C801002080B582B000AF021CFB1D1A7072
:101FB000FB1D1B787F2B02D9FB1D00221A70FB1D15
:101FC0001B781B061B16022B02DDFB1D02221A705A
:101FD000064BFA1D12789A72044B9B7A1B061B164D
:101FE000181CBD4602B080BC02BC0847C8010020D6
:101FF00080B500AF044B9B7A1B061B16181CBD4610
:1020000080BC02BC0847C046C801002080B582B031
:1020100000AF021CFB1D1A70FB1D1B787F2B02D921
:10202000FB1D00221A70FB1D1B781B061B16012BC3
:1020300002DDFB1D01221A70064BFA1D1278DA72BE
:10204000044BDB7A1B061B16181CBD4602B080BC75
:1020500002BC0847C801002080B500AF044BDB7A02
:102060001B061B16181CBD4680BC02BC0847C04698
:10207000C801002080B582B000AF021CBB1D1A80D1
:10208000BB1D00215A5E0F4B9A4202DABB1D0D4A5E
:102090001A80BB1D00215A5E96235B009A4203DD25
:1020A000BB1D962252001A80074BBA1D12889A81D6
:1020B000054B9B891B041B14181CBD4602B080BC39
:1020C00002BC0847D4FEFFFFC801002080B500AF66
:1020D000044B9B891B041B14181CBD4680BC02BC0E
:1020E0000847C046C801002080B582B000AF021C7E
:1020F000BB1D1A80BB1D1A880E4B9A4203D8BB1D0C
:10210000802292001A80BB1D1A888023DB009A422D
:1021100003D9BB1D8022D2001A80074BBA1D12883A
:102120001A82054B1B8A181CBD4602B080BC02BC3B
:102130000847C046FF010000C801002080B500AF7D
:10214000034B1B8A181CBD4680BC02BC0847C04616
:10215000C801002080B582B000AF021CFB1D1A70C0
:10216000FB1D1B78052B02D9FB1D05221A70064B9F
:10217000FA1D12781A71044B1B79181CBD4602B067
:1021800080BC02BC0847C0463C1B002080B500AFA5
:10219000034B1B79181CBD4680BC02BC0847C046D7
:1021A0003C1B002080B500AF034B1B88181CBD46AC
:1021B00080BC02BC0847C0463C1B002080B500AF75
:1021C000054B1B88042213431B041A0C024B1A8074
:1021D000BD4680BC01BC00473C1B002080B500AF61
:1021E000054B1B88042293431B041A0C024B1A80D4
:1021F000BD4680BC01BC00473C1B002080B500AF41
:10220000044BDB891B041B14181CBD4680BC02BC9C
:102210000847C0463C1B002080B582B000AF021CBE
:10222000BB1D1A80BB1D00229B5E1A1CFF3203DA05
:10223000BB1DFF2252421A80BB1D00229B5EFF2B5A
:1022400002DDBB1DFF221A80064BBA1D12881A81BF
:10225000BB1D1B881B041B14181CBD4602B080BC90
:1022600002BC0847C801002080B500AF044B1B89A1
:102270001B041B14181CBD4680BC02BC0847C0468A
:10228000C801002080B582B000AF021CBB1D1A80BF
:10229000064B5A88BB1D1B8813431B041A0C034BA7
:1022A0005A80BD4602B080BC01BC00473C1B0020E8
:1022B00080B500AFBD4680BC01BC0047F0B587B01B
:1022C00002AF8E4B1B78002B23D18D4B1A688023D5
:1022D0005B021340002B1CD08A4B1B8801331B046C
:1022E0001A0C884B1A80884B00225A80854B1A881A
:1022F000864B9A420DD1864B1B781B061A0E7F4BDC
:102300001A70814B1B88012213431B041A0C7E4B4D
:102310001A80804B1B78002B02D17B4B00225A8005
:10232000794B5B881A1C08231340002B09D0764B8D
:102330005B88082293431B041A0C734B5A8002F0EB
:102340000BFD714B5B881A1C012313401B061B0EEF
:10235000002B0BD06C4B5B88012293431B041A0C9F
:10236000694B5A8002F0F8FC00F0E0FB664B5B889A
:102370001A1C02231340002B00D1A4E3624B5B889C
:10238000022293431B041A0C5F4B5A80A0235B006C
:10239000002200920020DA211A1C162302F09AFC77
:1023A0005D495B4B1B791B061A16131C9B009B187F
:1023B000143BCA18594B0021009159490191102032
:1023C000E12102F043FD574A514B5B791B061B1676
:1023D0009B00D218514B00210091514901913C20A2
:1023E000E12102F033FD5049494B1B781B061B16B7
:1023F0005A1E131C5B009B185B00CA18FC23DB00F1
:1024000000210091464901917320E12102F01EFD57
:1024100046493F4B9B7A1B061A16131C9B009B18C0
:10242000CA18434B002100913D490191C320E1218D
:1024300002F00CFD364BDB7A1B061A0E8223590084
:102440003B4B002000903B480190081CE32102F028
:1024500091FC2D4B1B79022B31D83B1C0F332A4AA0
:1024600012791A703B1C0F331A78334BD200D05AB2
:102470003B1C0F331A7830490223D2008A18D31834
:1024800019883B1C0F331A782B4C0423D200A21856
:10249000D3181A883B1C0F331C78274D0623E40001
:1024A0002C19E3181B8800040014090409141204F1
:1024B00012141B041B14214C0094FDF75DFF204BEC
:1024C00000220092164A01920E2000211A1C0023BD
:1024D00002F0BCFC0C4B1B881A1C04231340002B7D
:1024E00032D0184B002200920D4A01920E2000219A
:1024F0001A1C1F2302F0AAFC31E0C046870100200D
:1025000010E000E0B81D00203C1B0020DC050000AE
:10251000C801002086010020F06F0008FF070000BE
:10252000380100204470000850700008E87000086E
:102530005FB30000B4000020C0000020E0FF0000F6
:10254000F870000804710008D14AFC23DB00002168
:102550000091D04901910E20002102F077FCCE4B72
:102560001A88CE4B9A4258D0CD4B1B8801331B049E
:102570001A0CCB4B1A80CA4B1B88462B4DD13B1CE7
:102580000C3300221A803B1C0C331A88A0235B00FA
:102590000092002000211A1CF02302F09BFB3B1C40
:1025A0000C331B880093BF4B019314205021002251
:1025B0001F2302F0DFFB3B1C0C331A88BA4B00923E
:1025C000BA4A019218207321002202F0D3FB3B1C6F
:1025D0000C331A88B44B0092B54A01921420B421EE
:1025E000002202F0C7FB3B1C0C331A88AE4B009252
:1025F000B04A01925A20B221002202F0BBFB3B1CE0
:102600000C331A88A84B0092AB4A01925A20C82179
:10261000002202F0AFFB00F0AFFEA84B1B891B04A9
:102620001B0C033B1B041B0C00220092A44A0192CA
:102630000220191C0122002302F09CFBA14BDB8825
:102640001B041A0C9F4B1B891B041B0CD3181B0467
:102650001B0C7522D31A1B041A0C3B1C0C331A805A
:102660003B1C0C3300229B5E102B03DC3B1C0C3309
:1026700011221A803B1C0C3300229B5ED92B03DDF8
:102680003B1C0C33D9221A808C4B1B79052B01D1B2
:10269000854B00E08C4B3A1C0A3213803B1C0C33F8
:1026A0001B88033B1B041A0C3B1C0A331B880021AC
:1026B0000091834901910220111C012202F05AFB72
:1026C0007E4B3A1C0C3212881A817C4BDA887B4B89
:1026D0005B79120412141B041B1400210091101CBE
:1026E00008211A1C052302F0F5FAFC23DB000093F5
:1026F0006B2006210122082302F0ECFAFC23DB0008
:1027000000936B2006210422012302F0E3FAFC234C
:10271000DB0000936B200E210422012302F0DAFA81
:10272000FC23DB000093D52006210122082302F0C0
:10273000D1FAFC23DB000093D220062104220123DE
:1027400002F0C8FAFC23DB000093D2200E21042201
:10275000012302F0BFFAFC23DB0000936E200A2164
:102760006522012302F0B6FA564B5B881B041B144A
:10277000652253431A1C534B1B8A101C191C00F072
:10278000FFFD031C1B061A0E3B1C0F336E321A7022
:102790004C4B1B8A4D48191C00F0F2FD031C1B0416
:1027A0001A0C3B1C0E331A70444B1B79042B01D1BD
:1027B0003D4B01E0FC23DB003A1C0A3213803B1C3A
:1027C0000F331B781B041A0C3B1C0E331B781B04A5
:1027D0001B0C120412141B041B14391C0A31098827
:1027E0000091101C08211A1C052302F073FA3B1CEF
:1027F0000F331B781B041A0C304BDA802F4B3A1C1A
:102800000E3212785A712D4B5B891B041B0C033B53
:102810001B041B0C2E4A0021009129490191101C18
:10282000191C0222002302F0A5FA264B9B891B04E7
:102830001A0C244BDB881B041B0CD3181B041A0C2A
:10284000204B1B891B041B0CD3181B041B0C75226B
:10285000D31A1B041A0C3B1C0C331A803B1C0C3380
:1028600000229B5E102B03DC3B1C0C3311221A80D0
:102870003B1C0C3300229B5ED92B03DD3B1C0C332D
:10288000D9221A800D4B1B79032B23D1064B22E052
:102890000C71000838010020820100204AEC000081
:1028A0008401002040000020E0FF000034000020F0
:1028B000100000201C000020280000203C1B0020ED
:1028C00094000020C8010020FF0700005C76000093
:1028D000370100008A4B3A1C0A3213803B1C0C3330
:1028E0001B88033B1B041A0C86493B1C0A331B88BC
:1028F0000020009084480190081C111C022202F064
:1029000039FA824B3A1C0C3212885A81804B9B89CF
:102910001B041B14181C01F047FA031C181C00F0C0
:10292000A7FE031C0C1C181C211C744B724A00F0DF
:10293000F7FE031C0C1C1D1C261C754B1B791B066B
:102940001B161A1F734B9200D358181C00F090FEF0
:10295000031C0C1C281C311C1A1C231C00F0E0FE5C
:10296000031C0C1C181C211C01F014F9031C7B60B7
:1029700001231C1C7868684901F0CCFA031C002B69
:1029800001D100231C1C23061B0E002B0BD03B1C6B
:102990000F3320221A703C1C0A34786801F0CEFAFA
:1029A000031C23800EE03B1C0F332D221A707B6822
:1029B0008022120653403C1C0A34181C01F0BEFA57
:1029C000031C23803B1C0A331A88544B101C191C0F
:1029D000FDF790FF4E4B1B791B061B16092B1DDCC8
:1029E0004F4B1A794E4B5A714D4BDA784C4B1A714A
:1029F0004B4B2E22DA704A4B56229A71484B0022DA
:102A0000DA71474B3A1C0F3212781A70444B5B78DC
:102A1000302B4ED1424B20225A704AE0404B2022AC
:102A20001A703F4B9A783E4B5A703D4BDA783C4BCC
:102A30009A703B4B1A793A4BDA70394B5A79384BCA
:102A40001A71374B6D225A71354B56229A71344B9D
:102A50000022DA713B1C0E3301221A7013E03B1C7A
:102A60000E331B782E4AD35C302B12D13B1C0E3315
:102A70001B782B4A2021D1543B1C0E333A1C0E32BA
:102A8000127801321A703B1C0E331B78032BE6D9E7
:102A900000E0C0463B1C0E333A1C0E321278013A5D
:102AA0001A703B1C0E331B781D4A391C0F310978F4
:102AB000D1541B4A1B4B002100911B490191F0206E
:102AC000002102F0C3F9114B5B881A1C0423134048
:102AD000002B09D00D4B5B88042293431B041A0C76
:102AE0000A4B5A8000F0F4F8BD4605B0F0BC01BCBA
:102AF0000047C046C046C0460000000000C8E93F8D
:102B00005FB3000037010000940000203C1B002050
:102B1000C80100202070000800000000091B0020F0
:102B2000081B00201E8400003801002080B584B0FE
:102B300002AFFB1D01221A7021E0FB1D1B781B0454
:102B40001B0C1A1C9200D3181A1C91001A1C0B1C87
:102B5000D3181B041B0C0A331B041B0C1B041B0C7B
:102B60001B041B14584A0092181C11210122C8236F
:102B700002F0B0F8FB1DFA1D127801321A70FB1D2D
:102B80001B780B2BD9D9FB1D01221A7022E0FB1DEB
:102B90001B781B041B0C1A1C9200D3181A1C9100E2
:102BA0001A1C0B1CD3181B041B0C11331B041B0C0D
:102BB0001B041B0C1B041B1496225200424900915B
:102BC0000A20191C012302F085F8FB1DFA1D12785A
:102BD00001321A70FB1D1B78072BD8D996235B0096
:102BE0003A4A00920A2011211A1C012302F072F8BD
:102BF00096235B00354A00920A20D9211A1C012332
:102C000002F068F8314B00930A2011210122C823F9
:102C100002F060F89B235B002C4A0092181C1121E3
:102C20000122C82302F056F8FB1D01221A701CE095
:102C3000FB1D1B781B041B0C1A1C9200D3181B04D1
:102C40001B0C0A331B041B0C1B041B0C1B041B1446
:102C50001D4A0092181C73210122052302F03AF844
:102C6000FB1DFA1D127801321A70FB1D1B783B2BDD
:102C7000DED9FB1D01221A701CE0FB1D1B781B0412
:102C80001B0C1A1C9200D3181B041B0C11331B04C1
:102C90001B0C1B041B0C1B041B140B4A00929E20D4
:102CA000191C0522012302F015F8FB1DFA1D1278EC
:102CB00001321A70FB1D1B78272BDED9BD4602B0EE
:102CC00080BC01BC0047C046CB5A0000FBDE0000C0
:102CD00090B58BB002AFA34B1B881A1C4023134046
:102CE000002B04D0A04B7B61A04B3B6103E0A04BC9
:102CF0007B61A04B3B619B4B9A699F4B5B881B049C
:102D00001B145B00D318FB609B4B1B8A5A009B4B28
:102D1000D218FB689A4206D8974B1B8A5B005B422D
:102D2000FA68D318FB603B1C0A33934AD2881A8096
:102D3000FB681A883B1C0A331B88D3181B041A0C27
:102D40003B1C1A331A803B1C1A3300215A5E8C4BF1
:102D50009A4203DD3B1C1A33894A1A803B1C1A3302
:102D600000215A5E874B9A4203DC3B1C1A33864A89
:102D70001A803B1C1E330B221A8080E0FB681A88E5
:102D80003B1C1C331A803B1C1C331A883B1C0A3327
:102D90001B88D3181B041A0C3B1C1C331A803B1CC9
:102DA0001C3300215A5E764B9A4203DD3B1C1C33D8
:102DB000734A1A803B1C1C3300215A5E714B9A42A5
:102DC00003DC3B1C1C33704A1A803C1C08343B1C3F
:102DD0001C3300215A5E3B1C1A3300215B5E101C21
:102DE000191CFDF74BFD031C2380BC1D3B1C1C3331
:102DF00000215A5E3B1C1A3300215B5E101C191C1B
:102E0000FDF75AFD031C23803B1C1A333A1C1C326D
:102E100012881A80BB1D1B881B061B0E7522D31A35
:102E20001B061A0E7B691A707B6901337B61BB1D1F
:102E30001B881B061A0E3B1C08331B881B061B0E27
:102E4000D31A1B061B0E01331B061A0E3B691A70A0
:102E50003B6901333B61FB680233FB60464B1B8AD5
:102E60005A00464BD218FB689A4201D8434BFB608C
:102E70003B1C1E333A1C1E32128801321A803B1C46
:102E80001E331A88414B9A4200D877E7404B1B8883
:102E9000002B16D03E4B1B88013B1B041A0C3C4BED
:102EA0001A803B4B1B88002B0BD12E4B1B8810220A
:102EB00013431B041A0C2B4B1A80364BFA22520078
:102EC0001A80002000F06EF8FFF730FE254B1B88BB
:102ED000402253401B041A0C224B1A802E4B181C04
:102EE00000F060F82B4B1B88002B2AD0294B1B8845
:102EF000013B1B041A0C274B1A80264B1B88002B06
:102F00001FD1184B1B88102293431B041A0C154B1E
:102F10001A8000230093214B01930B20CC21002227
:102F2000002301F027FF002300931D4B0193C420D1
:102F3000CD210022002301F01DFF154BFA22920043
:102F40001A80134B1B88002B07D1124B1B88002BB8
:102F500003D10F4BFA2292001A80BD4609B090BCF3
:102F600001BC00473C1B00208C1C0020DC11002011
:102F7000BC1D0020601B0020C80100200813002099
:102F8000630800009B0700009C070000350100005B
:102F9000EC1E0020581B0020FF07000064000020EA
:102FA0007000002080B588B002AF021CBB1D1A80E3
:102FB000474B1B881A1C40231340002B51D0454B14
:102FC0003B61454BFB603B1C16330B221A8022E011
:102FD0003B1C163319883B691B781A1C3B6901336B
:102FE0003B61FB681B78F8680130F860090409143C
:102FF000120412141B041B14B81D00880090081C36
:10300000111C012201F066FE3B1C16333A1C1632DD
:10301000128801321A803B1C16331A882F4B9A42B1
:10302000D6D92B4B1B881A1C10231340002B4AD0D7
:10303000BB1D1B88002B46D0294B00220092294A39
:1030400001920B20CC21002201F094FE244B00229F
:103050000092254A0192C420CD21002201F08AFE6F
:1030600031E0224B3B61224BFB603B1C16330B22B1
:103070001A8022E03B1C163319883B691B781A1C06
:103080003B6901333B61FB681B78F8680130F860ED
:1030900009040914120412141B041B14B81D00881F
:1030A0000090081C111C012201F014FE3B1C163379
:1030B0003A1C1632128801321A803B1C16331A88C9
:1030C000064B9A42D6D9BD4606B080BC01BC00472B
:1030D0003C1B0020BC1D0020601B002035010000AF
:1030E000CB5A000064000020700000208C1C0020DF
:1030F000DC11002080B500AF514B1B8A1B041B0C58
:103100001A1C02231340002B5DD04D4B9B8E1B04D9
:103110001A0C4C4B1A824A4B494A92891204120CDF
:1031200002218A431204120C9A81454B444A128CA4
:103130001204120C01218A431204120C1A84404B0F
:10314000404A118A404A108A3F4AD2891204120C1E
:10315000821A1204120C8A181204120C1A87384BA5
:10316000374A128A1204120C04218A431204120CE8
:103170001A82354B1B781B061B160D2B03DC324BBA
:103180009B7A002B09D02E4B2D4A92891204120CE7
:1031900004210A431204120C9A812A4B1B88022232
:1031A00013431B041A0C274B1A80254B244A128AFE
:1031B0001204120C02218A431204120C1A82234BAD
:1031C000802212025A611E4B1B8A1B041B0C1A1C04
:1031D00004231340002B2FD01D4B1D4A12680121E0
:1031E0008A431A60164B164A128A1204120C0421E2
:1031F0008A431204120C1A82114B114A928912044A
:10320000120C04218A431204120C9A818023DB05DC
:103210008022D20512881204120C01218A43120462
:10322000120C1A80FDF700FE064B1B880122134387
:103230001B041A0C034B1A80BD4680BC01BC00471E
:10324000002C01403C1B0020C80100200008014068
:103250000800024080B500AF1D4B1A6802231340DE
:10326000002B30D01A4B1A4A126802218A431A6086
:10327000184B5A69164BDB6C1B041B0C1380154B47
:103280005A69154B1A60134B5B699A1C114B5A61B2
:10329000104B5A69114BD968114B1B8A5B00CB1834
:1032A0009A4208D30B4B5A690D4B1B8A5B005B4259
:1032B000D218084B5A61074B1B88082213431B0482
:1032C0001A0C044B1A80BD4680BC01BC0047C046A6
:1032D000002401403C1B00205C1B00200800024031
:1032E000C801002080B500AF1F4B1A6802231340AD
:1032F000002B05D01C4B1C4A526802210A435A601D
:10330000194B1A6804231340002B29D0174B174A76
:10331000128A1204110C164A0A401204120C1A8264
:10332000114B114A526804210A435A60114B114A49
:10333000126804218A431A600C4B0C4A92891204C9
:10334000120C02210A431204120C9A81074B074AFD
:10335000128C1204120C01210A431204120C1A845A
:10336000BD4680BC01BC004700000240002C01406B
:10337000FDFDFFFF0800024080B500AFFEE7C0463C
:10338000002902D0B0FBF1F0704708B14FF0FF30D8
:1033900000F008B80029F8D00246B0FBF1F000FBBD
:1033A00011217047704700BF81F0004102E000BF6B
:1033B00083F0004330B54FEA41044FEA430594EAF5
:1033C000050F08BF90EA020F1FBF54EA000C55EA30
:1033D000020C7FEA645C7FEA655C00F0E2804FEA01
:1033E0005454D4EB5555B8BF6D420CDD2C4480EAE3
:1033F000020281EA030382EA000083EA010180EA13
:10340000020281EA0303362D88BF30BD11F0004F60
:103410004FEA01314FF4801C4CEA113102D0404296
:1034200061EB410113F0004F4FEA03334CEA1333D1
:1034300002D0524263EB430394EA050F00F0A780E9
:10344000A4F10104D5F1200E0DDB02FA0EFC22FAE4
:1034500005F2801841F1000103FA0EF2801843FAD8
:1034600005F359410EE0A5F120050EF1200E012AC9
:1034700003FA0EFC28BF4CF0020C43FA05F3C01807
:1034800051EBE37101F0004507D54FF0000EDCF180
:10349000000C7EEB00006EEB0101B1F5801F1BD329
:1034A000B1F5001F0CD349085FEA30004FEA3C0C2D
:1034B00004F101044FEA445212F5800F80F09A8023
:1034C000BCF1004F08BF5FEA500C50F1000041EB27
:1034D000045141EA050130BD5FEA4C0C404141EB2B
:1034E000010111F4801FA4F10104E9D191F0000F52
:1034F00004BF01460020B1FA81F308BF2033A3F1D5
:103500000B03B3F120020CDA0C3208DD02F1140CCB
:10351000C2F10C0201FA0CF021FA02F10CE002F106
:103520001402D8BFC2F1200C01FA02F120FA0CFCFF
:10353000DCBF41EA0C019040E41AA2BF01EB045148
:10354000294330BD6FEA04041F3C1CDA0C340EDC46
:1035500004F11404C4F1200220FA04F001FA02F389
:1035600040EA030021FA04F345EA030130BDC4F147
:103570000C04C4F1200220FA02F001FA04F340EA3C
:103580000300294630BD21FA04F0294630BD94F0ED
:10359000000F83F4801306BF81F480110134013DD4
:1035A0004EE77FEA645C18BF7FEA655C29D094EA45
:1035B000050F08BF90EA020F05D054EA000C04BFC3
:1035C0001946104630BD91EA030F1EBF00210020AE
:1035D00030BD5FEA545C05D14000494128BF41F04D
:1035E000004130BD14F580043CBF01F5801130BDB1
:1035F00001F0004545F0FE4141F470014FF000003C
:1036000030BD7FEA645C1ABF194610467FEA655CEC
:103610001CBF0B46024650EA013406BF52EA03358E
:1036200091EA030F41F4002130BD00BF90F0000F7C
:1036300004BF0021704730B54FF4806404F13204B8
:103640004FF000054FF0000150E700BF90F0000F71
:1036500004BF0021704730B54FF4806404F1320498
:1036600010F0004548BF40424FF000013EE700BF68
:1036700042004FEAE2014FEA31014FEA02701FBFF8
:1036800012F07F4393F07F4F81F06051704732F02A
:103690007F4208BF704793F07F4F04BF41F4002181
:1036A000704730B54FF4607401F0004521F00041DF
:1036B0001CE700BF50EA010208BF704730B54FF069
:1036C00000050AE050EA010208BF704730B511F06A
:1036D000004502D5404261EB41014FF4806404F1A2
:1036E00032045FEA915C3FF4D8AE4FF003025FEA28
:1036F000DC0C18BF03325FEADC0C18BF033202EBAC
:10370000DC02C2F1200300FA03FC20FA02F001FA05
:1037100003FE40EA0E0021FA02F11444BDE600BFA8
:1037200070B54FF0FF0C4CF4E06C1CEA11541DBF57
:103730001CEA135594EA0C0F95EA0C0F00F0DEF822
:103740002C4481EA030621EA4C5123EA4C5350EA07
:10375000013518BF52EA033541F4801143F4801358
:1037600038D0A0FB02CE4FF00005E1FB02E506F0E9
:103770000042E0FB03E54FF00006E1FB03569CF03E
:10378000000F18BF4EF0010EA4F1FF04B6F5007F44
:1037900064F5407404D25FEA4E0E6D4146EB0606B6
:1037A00042EAC62141EA55514FEAC52040EA5E503F
:1037B0004FEACE2EB4F1FD0C88BFBCF5E06F1ED8E9
:1037C000BEF1004F08BF5FEA500E50F1000041EB20
:1037D000045170BD06F0004646EA010140EA0200CD
:1037E00081EA0301B4EB5C04C2BFD4EB0C0541EAEF
:1037F000045170BD41F480114FF0000E013C00F304
:10380000AB8014F1360FDEBF002001F0004170BD27
:10381000C4F10004203C35DA0C341BDC04F1140440
:10382000C4F1200500FA05F320FA04F001FA05F2CC
:1038300040EA020001F0004221F0004110EBD37099
:1038400021FA04F642EB06015EEA430E08BF20EAC5
:10385000D37070BDC4F10C04C4F1200500FA04F368
:1038600020FA05F001FA04F240EA020001F00041FA
:1038700010EBD37041F100015EEA430E08BF20EA6D
:10388000D37070BDC4F1200500FA05F24EEA020EB5
:1038900020FA04F301FA05F243EA020321FA04F0E4
:1038A00001F0004121FA04F220EA020000EBD3709B
:1038B0005EEA430E08BF20EAD37070BD94F0000F9B
:1038C0000FD101F00046400041EB010111F4801FCF
:1038D00008BF013CF7D041EA060195F0000F18BF80
:1038E000704703F00046520043EB030313F4801FBC
:1038F00008BF013DF7D043EA0603704794EA0C0F76
:103900000CEA135518BF95EA0C0F0CD050EA41068B
:1039100018BF52EA4306D1D181EA030101F0004108
:103920004FF0000070BD50EA410606BF1046194630
:1039300052EA430619D094EA0C0F02D150EA01363C
:1039400013D195EA0C0F05D152EA03361CBF10467D
:1039500019460AD181EA030101F0004141F0FE411C
:1039600041F470014FF0000070BD41F0FE4141F4A0
:10397000780170BD70B54FF0FF0C4CF4E06C1CEAA0
:1039800011541DBF1CEA135594EA0C0F95EA0C0F55
:1039900000F0A7F8A4EB050481EA030E52EA033510
:1039A0004FEA013100F088804FEA03334FF0805531
:1039B00045EA131343EA12634FEA022245EA11155E
:1039C00045EA10654FEA00260EF000419D4208BF0F
:1039D000964244F1FD0404F5407402D25B084FEABC
:1039E0003202B61A65EB03055B084FEA32024FF468
:1039F00080104FF4002CB6EB020E75EB030E22BFC5
:103A0000B61A754640EA0C005B084FEA3202B6EB84
:103A1000020E75EB030E22BFB61A754640EA5C0033
:103A20005B084FEA3202B6EB020E75EB030E22BFC3
:103A3000B61A754640EA9C005B084FEA3202B6EBC4
:103A4000020E75EB030E22BFB61A754640EADC0083
:103A500055EA060E18D04FEA051545EA16754FEAE5
:103A600006164FEAC30343EA52734FEAC2025FEA03
:103A70001C1CC0D111F4801F0BD141EA00014FF092
:103A800000004FF0004CB6E711F4801F04BF014363
:103A90000020B4F1FD0C88BFBCF5E06F3FF6AFAE7F
:103AA000B5EB030C04BFB6EB020C5FEA500C50F10F
:103AB000000041EB045170BD0EF0004E4EEA113192
:103AC00014EB5C04C2BFD4EB0C0541EA045170BD99
:103AD00041F480114FF0000E013C90E645EA060EDD
:103AE0008DE60CEA135594EA0C0F08BF95EA0C0F0B
:103AF0003FF43BAF94EA0C0F0AD150EA01347FF453
:103B000034AF95EA0C0F7FF425AF104619462CE729
:103B100095EA0C0F06D152EA03353FF4FDAE10468C
:103B2000194622E750EA410618BF52EA43067FF4DD
:103B3000C5AE50EA41047FF40DAF52EA43057FF46D
:103B4000EBAE12E74FEA410212F5001215D211D581
:103B50006FF47873B3EB625212D94FEAC12343F08A
:103B6000004343EA505311F0004F23FA02F018BF0C
:103B7000404270474FF00000704750EA013005D1D5
:103B800011F0004008BF6FF0004070474FF0000098
:103B9000704700BF4FEA4102B2F1E04324BFB3F5E2
:103BA000001CDCF1FE5C0DD901F0004C4FEAC002B4
:103BB0004CEA5070B2F1004F40EB830008BF20F098
:103BC0000100704711F0804F21D113F13872BCBF52
:103BD00001F00040704741F480114FEA5252C2F1A7
:103BE0001802C2F1200C10FA0CF320FA02F018BFF0
:103BF00040F001004FEAC1234FEAD32303FA0CFC43
:103C000040EA0C0023FA02F34FEA4303CCE77FEAD1
:103C1000625307D150EA01331EBF4FF0FE4040F41B
:103C20004000704701F0004040F0FE4040F40000CA
:103C3000704700BF80F0004002E000BF81F000410B
:103C400042001FBF5FEA410392EA030F7FEA226C42
:103C50007FEA236C6AD04FEA1262D2EB1363C1BFD2
:103C6000D218414048404140B8BF5B42192B88BF41
:103C7000704710F0004F40F4000020F07F4018BF64
:103C8000404211F0004F41F4000121F07F4118BF84
:103C9000494292EA030F3FD0A2F1010241FA03FC2C
:103CA00010EB0C00C3F1200301FA03F100F0004314
:103CB00002D5494260EB4000B0F5000F13D3B0F1DC
:103CC000807F06D340084FEA310102F10102FE2A4B
:103CD00051D2B1F1004F40EBC25008BF20F00100BB
:103CE00040EA03007047490040EB000010F4000F69
:103CF000A2F10102EDD1B0FA80FCACF1080CB2EBFC
:103D00000C0200FA0CF0AABF00EBC250524218435A
:103D1000BCBFD0401843704792F0000F81F40001FF
:103D200006BF80F400000132013BB5E74FEA4103D2
:103D30007FEA226C18BF7FEA236C21D092EA030F3E
:103D400004D092F0000F08BF0846704790EA010FB8
:103D50001CBF0020704712F07F4F04D1400028BFE5
:103D600040F00040704712F100723CBF00F50000C7
:103D7000704700F0004343F0FE4040F400007047FD
:103D80007FEA226216BF08467FEA236301464202A9
:103D900006BF5FEA412390EA010F40F480007047BC
:103DA0004FF0000304E000BF10F0004348BF404262
:103DB0005FEA000C08BF704743F0964301464FF09E
:103DC00000001CE050EA010208BF70474FF00003FA
:103DD0000AE000BF50EA010208BF704711F000433B
:103DE00002D5404261EB41015FEA010C02BF84460B
:103DF0000146002043F0B64308BFA3F18053A3F56A
:103E00000003BCFA8CF2083AA3EBC25310DB01FAB0
:103E100002FC634400FA02FCC2F12002BCF1004F34
:103E200020FA02F243EB020008BF20F001007047C5
:103E300002F1200201FA02FCC2F1200250EA4C0019
:103E400021FA02F243EB020008BF20EADC7070475F
:103E50004FF0FF3C06E000BF4FF0010C02E000BF56
:103E60004FF0010C4DF804CD4FEA40024FEA4103F8
:103E70007FEA226C18BF7FEA236C11D001B052EAAE
:103E8000530C18BF90EA010F58BFB2EB030088BF74
:103E9000C81738BF6FEAE17018BF40F001007047E3
:103EA0007FEA226C02D15FEA402C05D17FEA236CC5
:103EB000E4D15FEA412CE1D05DF8040B704700BF0C
:103EC000844608466146FFE70FB5FFF7C9FF0028A3
:103ED00048BF10F1000F0FBD4DF808EDFFF7F4FFDC
:103EE0000CBF012000205DF808FB00BF4DF808ED75
:103EF000FFF7EAFF34BF012000205DF808FB00BF98
:103F00004DF808EDFFF7E0FF94BF012000205DF8B9
:103F100008FB00BF4DF808EDFFF7D2FF94BF01206A
:103F200000205DF808FB00BF4DF808EDFFF7C8FF63
:103F300034BF012000205DF808FB00BF42000ED214
:103F4000B2F1FE4F0BD34FF09E03B3EB126209D4D4
:103F50004FEA002343F0004323FA02F070474FF08A
:103F60000000704712F1610F01D1420202D14FF0FF
:103F7000FF3070474FF00000704700BF002103E0A2
:103F80000A4B5B584350043109480A4B42189A4285
:103F9000F6D3094A02E0002342F8043B074B9A4259
:103FA000F9D301F035FF00F00DF87047B883000831
:103FB000000000208001002080010020F01E002071
:103FC000FEE700002DE9F04F464B83B09847464B83
:103FD0009847464B9B68190401D4454B98474FF0CE
:103FE000000B444B9847444B9847444B9847444BED
:103FF000984744494448454B9847454B9847454B5B
:104000009847454B9847454D454B9847454B9847F2
:10401000454CCDE900B54FF6FF73444A782118208E
:10402000A047CDE900B54FF6FF73414A8C21182017
:10403000A047404AB4211820CDE900B54FF6FF73E0
:10404000A0473D4B98473D4B98473D4BD946DFF83D
:104050001C813C4F3C4DDFF818A13C4C3C4EA3F872
:1040600000B00EE02B78BBB92388DA071AD4E388B6
:1040700003BB338813B91BF0010F20D11BF0080FCD
:104080002BD1C047B84710F0800F8346EAD0314BA0
:1040900098472B78002BE7D085F80090D0472388ED
:1040A000DA07E4D523F0010323802B4B9847E388FC
:1040B000002BDED0294B9847A4F80690D9E70420BE
:1040C000274B9847274B984780B2122808D94FF0C2
:1040D00028031BF0080F3380D3D0234B9847D0E739
:1040E000D047CBE775410008E1410008000C0140D2
:1040F000D55600089963000815590008E5430008E3
:10410000454200080038014014710008A942000827
:1041100071430008C9420008194300083801002013
:1041200089430008CD4E00084D4E0008207100085C
:10413000000000203471000875560008D54B0008B7
:10414000B2010020A5210008AA010020B40100202E
:10415000AC010020855C0008855000080D56000861
:10416000852200080D1F0008051D0008BD2200085B
:10417000E90A000870B4002244F63D6115240720C6
:10418000134B144D144E1E605D60144D1D609A60FB
:10419000DA601A615C61D86199611A625A621A68C0
:1041A000910307D55A6822F003025A605A6842F018
:1041B00001025A60064B1A68920107D55A6822F02C
:1041C00003025A605A6842F002025A6070BC70479B
:1041D0000010024000841D008100010081000101E7
:1041E00030B44FF6FF724FF0333544240E490F4B75
:1041F0000F480B6048600F4B0F48CA601D60586045
:104200000E4D0F48DA60C1F80458A3F54063C1F8B9
:104210000C2804605A6830BC22F0E0625A605A6888
:1042200042F000725A60704700080140404444B4B4
:10423000B4444434000C0140BB3388880000303360
:104240000014014030B500234FF416424FF44025CE
:10425000084C85B06946204600920193064AADF8A5
:104260000C300295904720460121044B984705B039
:1042700030BD00BF00380140E55F000889610008DB
:1042800070B506460C46064D80212046A8470028FA
:10429000FAD031462046BDE87040024B184700BFB7
:1042A00051620008F561000870B50446007838B125
:1042B0000D46044E2946B04714F8010F0028F9D1E5
:1042C00070BD00BF81420008F0B400224FF4405797
:1042D000102640F60F65092405214FF0800C81203F
:1042E0000C4BA3F800C09A801A819A811A829A8294
:1042F0001F839A831E849A841D859C859986F0BCB1
:1043000019879A87A3F84020A3F84820A3F84C20E7
:104310001880704700040040F0B4002246F26007A5
:104320004FF4885640F6FF7540F2FF744FF0800C52
:1043300040F2FF3081210D4BA3F800C09A801A8112
:104340001A829A821A839F831E849A841A859D8575
:104350009A861A879C87A3F84000F0BCA3F84820EF
:10436000A3F84C209A811980704700BF00080040D4
:1043700000200721024B034A986019605A60704779
:1043800010E000E040190100002240F6FF700E4BE3
:1043900019461A605A609A60DA601A615A619A6125
:1043A000DA611A6258629A62DA621A635A639A632D
:1043B0009A6842F004029A608B685B07FCD58B68B0
:1043C00043F001038B60704700280140416383681C
:1043D00043F00103836003689B07FCD5C06C80B287
:1043E000704700BF2DE9F0414FF400670A249B4E4F
:1043F00041F288309A4D3761A84777614FF6E8500F
:10440000A84737614FF6FF70A847631E13F0FF04FB
:10441000F8D14FF400524FF480464FF40041914BD5
:104420008E485A615E61C768642407F47F4747F08D
:10443000CF07C760596119611E611A615A611E6117
:10444000C76807F47F47C760596119611A615A61EB
:104450001E61C76807F47F4747F0C107C76059610D
:1044600019611A615A611E61C76807F47F4747F0F6
:104470003007C760596119611A615A615E61C76886
:1044800007F47F4747F0ED07C760596119611E6166
:104490001A615A611E61C76807F47F4747F06707D2
:1044A000C760596119611A615A611E61C76807F4D2
:1044B0007F4747F00307C760596119611A615A6164
:1044C0001E61C76807F47F4747F01207C76059614C
:1044D00019611A615A611E61C76807F47F4747F086
:1044E0008107C760596119611A615A615E61C768C5
:1044F00007F47F4747F0CB07C760596119611E6118
:104500001A615A611E61C76807F47F4747F039078F
:10451000C760596119611A615A611E61C76807F461
:104520007F4747F02C07C760596119611A615A61CA
:104530001E61C76807F47F47C760596119611A6136
:104540005A611E61C76807F47F4747F03407C760A8
:10455000596119611A615A611E61C76807F47F4782
:1045600047F00207C760596119611A615A615E61BB
:10457000C76807F47F4747F0EA07C76059611961C8
:104580001E611A615A611E61C76807F47F47C760E0
:10459000596119611A615A611E61C76807F47F4742
:1045A000C760596119611A615A615E61C76807F491
:1045B0007F4747F0E807C760596119611E611A61BA
:1045C0005A611E61C76807F47F4747F08507C760D7
:1045D000596119611A615A611E61C76807F47F4702
:1045E00047F00A07C760596119611A615A611E6173
:1045F000C76807F47F4747F07807C76059611961BA
:104600001A615A615E61C76807F47F4747F0F70790
:10461000C760596119611E611A615A611E61C768DC
:1046200007F47F4747F02007C760596119611A6195
:104630005A615E61C76807F47F4747F0C007C760EB
:10464000596119611E611A615A611E61C76807F4D8
:104650007F4747F02607C760596105E0000C01401D
:10466000554C00080010014019611A615A615E61E1
:10467000C76807F47F4747F0C107C76059611961F0
:104680001E611A615A611E61C76807F47F4747F0CF
:104690000107C760596119611A615A615E61C76893
:1046A00007F47F4747F0C507C760596119611E616C
:1046B0001A615A611E61C76807F47F4747F02B07EC
:1046C000C760596119611A615A611E61C76807F4B0
:1046D0007F4747F02F07C760596119611A615A6116
:1046E0005E61C76807F47F4747F0C707C760596135
:1046F00019611E611A615A611E61C76807F47F471C
:1047000047F0C707C760596119611A615A615E6154
:10471000C76807F47F4747F03A07C76059611961D6
:104720001E611A615A611E61C76807F47F4747F02E
:104730005507C760596119611A615A615E61C7689E
:1047400007F47F4747F03607C760596119611E615A
:104750001A615A611E61C76807F47F4747F0200756
:10476000C760596119611A615A615E61C76807F4CF
:104770007F4747F0B107C760596119611E611A612F
:104780005A611E61C76807F47F47C76059611961A4
:104790001A615A611E61C76807F47F4747F018071E
:1047A000C760596119611A615A615E61C76807F48F
:1047B0007F4747F0B607C760596119611E611A61EA
:1047C0005A611E61C76807F47F4747F00A07C76050
:1047D000596119611A615A611E61C76807F47F4700
:1047E00047F0E207C760596119611A615A615E6159
:1047F000C76807F47F4747F0F207C760596119613E
:104800001E611A615A611E61C76807F47F47C7605D
:10481000596119611A615A615E61C76807F47F477F
:1048200047F02607C760596119611E611A615A6114
:104830001E61C76807F47F4747F00107C7605961E9
:1048400019611A615A615E61C76807F47F4747F0D2
:10485000E007C760596119611E611A615A611E61E2
:10486000C76807F47F4747F00F07C76059611961B0
:104870001A615A611E61C76807F47F4747F01D0738
:10488000C760596119611A615A611E61C76807F4EE
:104890007F4747F01A07C760596119611A615A6169
:1048A0001E61C76807F47F4747F00907C760596171
:1048B00019611A615A611E61C76807F47F4747F0A2
:1048C0000F07C760596119611A615A611E61C76893
:1048D00007F47F4747F00907C760596119611A61FA
:1048E0005A611E61C76807F47F4747F04607C760F3
:1048F000596119611A615A611E61C76807F47F47DF
:1049000047F08807C760596119611A615A611E61D1
:10491000C76807F47F4747F03907C76059611961D5
:104920001A615A611E61C76807F47F4747F005079F
:10493000C760596119611A615A611E61C76807F43D
:104940007F4747F00F07C760596119611A615A61C3
:104950001E61C76807F47F4747F00307C7605961C6
:1049600019611A615A611E61C76807F47F4747F0F1
:104970000707C760596119611A615A611E61C768EA
:1049800007F47F4747F00507C760596119611A614D
:104990005A611E61C76807F47F47C7605961196192
:1049A0001A615A615E61C76807F47F4747F0E10703
:1049B000C760596119611E611A615A611E61C76839
:1049C00007F47F47C760596119611A615A611E6116
:1049D000C76807F47F4747F02207C760596119612C
:1049E0001A615A611E61C76807F47F4747F02507BF
:1049F000C760596119611A615A611E61C76807F47D
:104A00007F4747F00607C760596119611A615A610B
:104A10001E61C76807F47F4747F01007C7605961F8
:104A200019611A615A611E61C76807F47F4747F030
:104A30000607C760596119611A615A611E61C7682A
:104A400007F47F4747F03907C760596119611A6158
:104A50005A611E61C76807F47F4747F02207C760A5
:104A6000596119611A615A611E61C76807F47F476D
:104A700047F04A07C760596119611A615A611E619E
:104A8000C76807F47F4747F00A07C7605961196193
:104A90001A615A611E61C76807F47F4747F0100723
:104AA000C760596119611A615A611E61C76807F4CC
:104AB0007F4747F00C07C760596119611A615A6155
:104AC0001E61C76807F47F4747F03807C760596120
:104AD00019611A615A611E61C76807F47F4747F080
:104AE0003A07C760596119611A615A611E61C76846
:104AF00007F47F4747F00F07C760596119611A61D2
:104B00005A615E61C76807F47F4747F01107C760C5
:104B1000596119611E611A614CF25030A847631E39
:104B200013F0FF04F8D14FF400514FF480444FF4D8
:104B300000460B4B0B4859615C61C26802F47F422E
:104B400042F02902C2605E614CF250301E611C616D
:104B50001961A8472B46BDE8F0414CF25030184788
:104B600000100140000C014070B44FF400514FF4AC
:104B700080444FF40045074B074E59615C61F26871
:104B800002F47F421043F0605D611D611C61196198
:104B900070BC704700100140000C01404FF4005100
:104BA0004FF4804230B44FF40044074B074D596135
:104BB0001A61EA6802F47F421043E8605C611C619C
:104BC000196130BC704700BF00100140000C01406B
:104BD000704700BF70B5002182B04FF00060114BEC
:104BE0009847002601251B230F4C01A8ADF804307F
:104BF0008DF806608DF80750A047122301A8ADF884
:104C000004308DF806608DF80750A0470B2301A8EB
:104C10008DF806608DF80750ADF80430A04702B05B
:104C200070BD00BF995F00080D5F000810B5064B0E
:104C30009847064B04469847204400F50060044B13
:104C400080B2988710BD00BFCD20000869220008FF
:104C50000008004082B0ADF80600BDF806309BB2F7
:104C600053B1BDF80630013B9BB2ADF80630BDF83C
:104C700006309BB2002BF4D102B070472DE9F0470B
:104C80008846064615461F46DFF844902A200F4CFA
:104C9000C84708F1FF38300AA047F0B24644B6B220
:104CA000A047300AA047F0B2A0472B20C847013FD9
:104CB000280AA047E8B23D44ADB2A047280AA04761
:104CC000E8B22346BDE8F047184700BF9D4B0008F7
:104CD000694B00082DE9F041174698468AB280B228
:104CE000B9B29BB2194DBDF81840A8474FF48041A6
:104CF0004FF400534FF400451548164E436141618F
:104D0000F26808FB07F702F47F4242F02C02F260DF
:104D100045610561016197B1220AF168013F01F423
:104D20007F4141EA0201F16045610561F16801F4EA
:104D30007F4141EA0401F16045610561EDD14FF425
:104D40000052034B1A61BDE8F08100BF7D4C0008A2
:104D500000100140000C0140002110B582B0F0238A
:104D6000009108464FF4A072014CA04702B010BD5C
:104D7000D54C00082DE9F843099E1C46377996F872
:104D8000088007F1070CA2EB08084FEAEC0C0CFBBB
:104D900008FC96F8058035680A4643463946284F90
:104DA00008FB0C58BDF82050B8474FF480414FF431
:104DB00000534FF400422348234F43614161FB6895
:104DC00003F47F4343F02C03FB6042610261016105
:104DD0003179737903FB01F3DB1053B3164699B2B3
:104DE00001F1FF3E1FFA8EFEC64408F1FF3C4FF072
:104DF00008091CF8011F11F0800F14BFA046A84637
:104E0000FA6809F1FF3902F47F4242EA1822FA6097
:104E100046610661FB68490003F47F4343EA0803E7
:104E200019F0FF09FB60C9B246610661E3D1F445A0
:104E3000DDD14FF40052034B1A61BDE8F88300BF87
:104E40007D4C000800100140000C01402DE9F047A6
:104E500004460F4616469A4682B0BDF828900B9D30
:104E6000DFF8348016F8012B9AB153462046CDE97D
:104E700000953946C047AB791C44A4B2B4F5A07F75
:104E8000F0D3EB7916F8012B1F440024BFB2002A9F
:104E9000EBD102B0BDE8F087754D000810B5074BA7
:104EA0009847A0F5006084B220B2054B9847054BA7
:104EB0002146BDE810405889034B1847FD210008E2
:104EC00019220008440100206D5A00082DE9F04124
:104ED0004FF2C53682B0594B9847594C0DF1060137
:104EE0000B20A047BDF80630564DB34255D0564B67
:104EF0000020564C984700212889A047544B072092
:104F000098470721A888A047524B002098470021C6
:104F1000E888A047504B1220984712212888A047C4
:104F20004E4B002098470021A889A0474C4B0020F9
:104F300098470021E889A0474A4B00209847002164
:104F4000288AA047484B4FF480609847474F4FF45A
:104F50008061A88AA047B84740089638444B00B201
:104F60009847B5F80280B8474108963989B240465B
:104F7000A047404B0020984700216889A047314650
:104F8000E88AA0473C4B9847012002223B493C4B12
:104F90000880DA8102B0BDE8F0810DF106012889B0
:104FA000A047294BBDF9060098470DF10601A888D6
:104FB000A047274B9DF9060098470DF10601E888A8
:104FC000A047244B9DF9060098470DF1060128885B
:104FD000A047214B9DF9060098470DF10601A889CD
:104FE000A0471E4B9DF9060098470DF10601E88980
:104FF000A0471B4B9DF9060098470DF10601288A32
:10500000A047184BBDF9060098470DF10601A88A84
:10501000A047154BBDF8060098470DF106016888BA
:10502000A047134BBDF9060098470DF106016889AA
:10503000A047BDF906000F4B9847A3E711070008EA
:10504000B158000844010020511E00086D5A0008A4
:105050007D1D0008E91D0008BD1E0008A51F0008F1
:105060000D20000875200008E92000083D210008F7
:10507000291F0008192200082D4C0008A801002053
:10508000B40100204E4B4FF6FF719B684D4A6FEA0A
:1050900013336FEA03339BB28B4270B5518003D058
:1050A0009188538099424AD00021142093809181A5
:1050B0001182508202214448444DA847B0F5106F38
:1050C00033D8B0F5407F8CBF0724042401213E482B
:1050D000A847B0F5106F30D8B0F5407F94BF0020DE
:1050E00001203B4E04443378A34206D0394B20467E
:1050F00098470220384B3470984703213248A8471C
:10510000B0F5106F13D8B0F5407F8CBF0124022496
:10511000324D2B78A3420FD060B2314B98472C70A0
:105120000220BDE870402C4B18470A24CEE700242B
:105130002A4D2B78A342EFD170BD0220D1E793898D
:10514000D08901339BB2834293811AD9C41CA342F4
:10515000B0D1148A558A631C9BB29D429081138200
:10516000A8D14BF6FF7321F0010188B21D49908050
:1051700098421BD031F8043F002BF9D102345482FD
:1051800098E797D147F6FF73994215D04BF6FF7316
:10519000144803E030F8043F002B8BD09942F9D13A
:1051A0008378C178D3805381118183E78B78C97864
:1051B000D38053811181E1E731210123F2E700BF60
:1051C000000C0140B401002000280140CD4300083C
:1051D000B00100207D1D000885220008B1010020DB
:1051E000E91D0008448100080B4B10B598474307A0
:1051F00008D50A4B98470A4B9847BDE81040022053
:10520000084B1847084B9847084B9847BDE8104093
:105210000220044B184700BFA5210008DD2100082B
:10522000E90A000885220008BD210008591D000870
:1052300010B5434B9847052844D8DFE800F01636F0
:10524000495A6D033F4B984701303F4B00B2984796
:105250003E4A81B23E4B3F4C108998470420A047FC
:105260002346BDE81040022018473B4B98470130C9
:105270003A4B40B298470446344B81B21888344BBD
:1052800098470D2CA4F10A04CCBF354B354BE4B242
:105290009847032C94BF05220222334B2D4CDA8110
:1052A00002202346BDE810401847304B9847013094
:1052B0002F4B40B29847254A81B2254B9089984799
:1052C000274B9847234C02202346BDE8104018473F
:1052D000284B98470130284B40B298471B4A1D4C39
:1052E00081B21B4BD08998472346BDE8104002206D
:1052F0001847224B98470130214B00B29847134A78
:1053000081B2134B108A134C98471E4B9847234683
:10531000BDE81040022018471B4B984701381B4B33
:1053200000B29847094A81B2094B0A4C5088984705
:105330000420A0472346BDE810400220184700BFC4
:105340008D210008A11E0008511E00084401002004
:105350006D5A0008852200080D1F0008BD1E0008B8
:10536000E90A0008810A0008B4010020F11F0008C2
:10537000A51F0008592000080D200008CD200008B6
:10538000752000082D4C0008891F0008291F0008FF
:1053900010B53C4B9847052827D8DFE800F01628C1
:1053A0003B4C5F03384B98470138384B00B2984765
:1053B000374A81B2374B10899847374C0420A047B1
:1053C0002346BDE8104002201847344B9847013867
:1053D000334B40B2984704462D4B81B218882D4B71
:1053E00098470C2C0EDC2F4B98472B4CE8E72E4BA4
:1053F000984701382D4B40B29847254A81B2254B3A
:1054000090899847244C2A4B98472346BDE8104082
:1054100002201847274B98470138274B40B298473E
:105420001B4A1D4C81B21B4BD08998472346BDE8CF
:10543000104002201847214B98470138204B00B2FA
:105440009847134A81B2134B108A134C98471D4B4F
:1054500098472346BDE81040022018471A4B98474A
:1054600001301A4B00B29847094A81B2094B0A4CE5
:10547000508898470420A0472346BDE810400220EA
:10548000184700BF8D210008A11E0008511E00080A
:10549000440100206D5A0008852200080D1F0008F5
:1054A000BD1E0008810A0008F11F0008A51F0008A2
:1054B000E90A0008592000080D200008CD20000846
:1054C000752000082D4C0008891F0008291F0008BE
:1054D00010B5074B98470130C0B20628054B28BFCE
:1054E00000209847BDE810400220034B184700BF3A
:1054F0008D210008552100088522000810B5184BA1
:105500009847042820D0052813D0032804D0BDE8EC
:1055100010400220134B1847134B98470A30134B87
:1055200000B29847124B9847BDE8104002200D4B3F
:105530001847104B98470A300F4B00B29847BDE808
:1055400010400220074B18470C4B984714380C4B5F
:1055500000B29847BDE810400220024B184700BF38
:105560008D21000885220008CD2000087520000844
:105570002D4C0008A11E0008511E0008891F0008BC
:10558000291F000810B5184B9847042820D005287B
:1055900013D0032804D0BDE810400220134B184755
:1055A000134B98470A38134B00B29847124B984751
:1055B000BDE8104002200D4B1847104B98470A38A1
:1055C0000F4B00B29847BDE810400220074B184728
:1055D0000C4B984714300C4B00B29847BDE8104074
:1055E0000220024B184700BF8D21000885220008C9
:1055F000CD200008752000082D4C0008A11E0008D1
:10560000511E0008891F0008291F0008104BDB8865
:10561000013B062B17D8DFE803F006080A0C0E142E
:1056200004000C4B18470C4B18470C4B18470C4BFD
:1056300018470C4B184710B50B4B9847052803D05B
:1056400010BD0A4B18477047094BBDE8104018477A
:10565000B401002085550008E951000831520008C6
:1056600091530008D15400088D210008FD54000812
:105670009D4E00084FF4004238B51424134B144DCE
:105680005A61013C4FF6E850A4B2A847002CF8D16B
:105690004FF4004214240D4B1A61013C4FF6E850C0
:1056A000A4B2A847002CF8D14FF400421424074BB1
:1056B0005A61013C4FF6E850A4B2A847002CF8D13B
:1056C0004FF40042014B1A6138BD00BF0008014091
:1056D000554C00082B482C494FF033332DE9F0414D
:1056E00080460F46294A2A4D546824F0030454602A
:1056F00054685460A2F58832546824F0E064546021
:10570000546844F080645460546844F40044546025
:1057100002F5A0521F4C036043602B606B600B606E
:105720004B601360536045F25553194E1A4DC8F83B
:105730000C304EF66020F360FB60EB60A0474EF645
:105740006020A0474EF66020A0474EF66020A0479C
:105750004EF66020A0474AF6AA234EF66020C8F80D
:105760000C30F360FB60EB60A0474EF66020A04772
:105770004EF66020A0474EF66020A0474EF660200F
:10578000A047D0E70008014000100140001002408F
:10579000000C0140554C000800140140704700BF48
:1057A000FEE700BFFEE700BFFEE700BFFEE700BF69
:1057B000704700BF704700BF704700BF0C4A138896
:1057C000013B9BB25BB113800A4A138833B1013BA2
:1057D0009BB2138013B90122074B1A7070470A233A
:1057E000064913800B8843F001030B80ECE700BFF0
:1057F000A8010020AC010020AA010020B401002073
:105800001A4B1B4A1B8812889BB292B2EAB94EF619
:10581000EE629B1A18BF01239B02164A70B503F172
:10582000006404F540441A44944203D315E0043460
:10583000A24212D923680133F9D105460E4E204603
:10584000B04704280DD080B270BD43B94EF6EE6368
:10585000D31AB3FA83F35B09DEE7802070BDAB2077
:1058600070472946A01CB047EDE700BF00C0000804
:1058700000C40008FEC300086564000810B50848AD
:10588000084CA047042800D010BD00210448064B56
:1058900098470428F8D12346BDE81040034818472C
:1058A00000C00008FD6300086564000800C400082B
:1058B000124B134A1B8810B49BB212882BB192B2C0
:1058C000CAB9104B104C1A4602E0104B104C1A4645
:1058D0001288904203D108E01A88904205D0043B18
:1058E000A342F9D8012010BC704733F8023C0020D5
:1058F0000B8010BC7047AB2010BC704700C0000884
:1059000000C40008FEC7000802C40008FEC3000867
:1059100002C000084EF6EE622DE9F843484D494EAC
:105920002C883388A4B294429BB24AD04FF6FF71C0
:105930008C4236D024B1444B984780B2BDE8F883FE
:10594000002BF8D08B4265D04FF0FF363F4D404FD3
:10595000DFF80091DFF810813B8835F8020B3D49F4
:10596000984208BF26B2B44204F101040AD0C047ED
:105970000128394B06D0B9F8001035F8020C9847C9
:105980000428DBD1142CE7D100212E48334B984753
:1059900080B20428D2D1324B2948984780B2BDE862
:1059A000F883002BF7D09342C5D128462C4B98475B
:1059B00080B20428C2D130460021284B984780B2DB
:1059C000BCE763BB1C464FF0FF36204D254FDFF888
:1059D0008490DFF894803B8835F8020B1D4998428B
:1059E00008BF26B2B44204F101040AD0C04701281E
:1059F000194B06D0B9F8001035F8020C9847042866
:105A00009CD1142CE7D100210D48144B984780B24B
:105A1000042893D10B48124B984780B28EE74FF67B
:105A2000FF72934287D130460D4B984780B20428CD
:105A300084D128460021094B984780B27EE700BFF9
:105A400000C0000800C400087D5800084401002080
:105A500006C40008F01E0020015800086564000814
:105A6000FD63000806C00008B15800082DE9F84F92
:105A7000264C05468846A0478028834602D05846D3
:105A8000BDE8F88F2249234E0B8832889BB292B230
:105A900073B17AB9B1460E464EF6EE6130461E4FEE
:105AA000B847042809D01FFA80FB5846BDE8F88F94
:105AB0008946F1E74FF0AB0BE1E741462846A047A6
:105AC00004288346DBD1DFF860A00AF128083AF801
:105AD000020B124985420AD0114B9847012806D083
